:020000040800F2
:100000005C220020AD0100081F1400081F14000826
:100010001F1400081F1400081F1400081F140008F4
:100020001F1400081F1400081F1400081F140008E4
:100030001F1400081F1400081F1400081F140008D4
:100040001F1400081F1400081F1400081F140008C4
:100050001F1400081F1400081F1400081F140008B4
:100060001F1400081F1400081F1400081F140008A4
:100070001F1400081F1400081F1400081F14000894
:100080001F1400081F1400081F1400081F14000884
:100090001F1400081F1400081F1400081F14000874
:1000A0001F1400081F1400081F1400081F14000864
:1000B0001F1400081F1400081F1400081F14000854
:1000C0001F1400081F1400081F1400081F14000844
:1000D0001F1400081F1400081F1400081F14000834
:1000E0001F1400081F1400081F1400081F14000824
:1000F0001F1400081F1400081F1400081F14000814
:100100001F1400081F1400081F1400081F14000803
:100110001F1400081F1400081F1400081F140008F3
:100120001F1400081F1400081F1400081F140008E3
:100130001F1400081F1400081F1400081F140008D3
:100140001F1400081F1400081F1400081F140008C3
:100150001F1400081F1400081F1400081F140008B3
:100160001F1400081F1400081F1400081F140008A3
:100170001F1400081F1400081F1400081F14000893
:100180001F1400081F1400081F1400081F14000883
:100190001F1400081F1400081F1400081F14000873
:1001A0001F1400081F1400081F14000800B583B0B6
:1001B00000F0DFF900F0F6FB00F0E6F9412000F076
:1001C000DBFB1A4B009304E0009B1A1D00920022F7
:1001D0001A60009B164A9342F6D3422000F0CCFBF3
:1001E000144B0193144B009307E0009B1A1D0092DF
:1001F000019A111D019112681A60009B0F4A9342E7
:10020000F3D3432000F0B8FB01F06AF8442000F07B
:10021000B3FB01F0DFFB462000F0AEFB0D2000F049
:10022000ABFB0A2000F0A8FB01F0B0FC5005002059
:100230005C1E0020E8730308000000205005002029
:1002400082B0164B1B680193019B43F0010301939D
:10025000124A019B1360124B00221A600F4B1B685D
:100260000193019B23F0847323F4803301930B4AA1
:10027000019B13600B4B0C4A1A60084B1B680193DF
:10028000019B23F480230193044A019B1360074BD5
:1002900000221A6000BF02B0704700BF0038024061
:1002A0000838024004380240103000240C38024064
:1002B00082B0094B1B680193019B6FEA53236FEADD
:1002C00043230193019B43F400030193024A019BE2
:1002D000136000BF02B070473038024082B0044B58
:1002E0001B680193024A019B136000BF02B0704774
:1002F0003438024000BF704782B00C4B1B6801933A
:10030000019B43F400330193019B43F48023019349
:10031000019B43F480030193019B43F080530193BD
:10032000024A019B136000BF02B070474038024090
:1003300082B00A4B1B680193019B43F010030193A9
:10034000019B43F480430193019B43F0806301933D
:10035000024A019B136000BF02B07047443802405C
:1003600082B0724B1B680193019B43F4803301936D
:100370006E4A019B13606E4B009308E06B4B1B6849
:1003800003F40033002B06D1009B013B0093009B3C
:10039000002BF3DC00E000BF009B002B40F3C28089
:1003A000644B1B680193019B43F080530193614AA6
:1003B000019B1360604B1B680193019B23F4404336
:1003C0000193019B43F4404301935B4A019B1360FB
:1003D0005A4B1B680193019B23F0F0030193574A8A
:1003E000019B1360554B1B680193019B23F46043F1
:1003F0000193019B43F400430193504A019B136016
:100400004E4B1B680193019B23F4E0530193019B26
:1004100043F4A0530193494A019B1360484B019355
:10042000484A019B1360414B1B680193019B43F0B9
:10043000807301933D4A019B136000BF3B4B1B68D7
:1004400003F00073002BF9D03B4B1B680193019B19
:1004500043F480330193384A019B136000BF3A4B49
:100460001B6803F48033002BF9D0334B1B680193D6
:10047000019B43F4003301932F4A019B136000BF9B
:10048000314B1B6803F40033002BF9D040F20563B5
:1004900001932E4A019B1360284B1B680193019B1B
:1004A00023F003030193019B43F002030193234ACA
:1004B000019B136000BF214B1B6803F00C03082B4A
:1004C000F9D1234B1B680193019B23F07F2323F079
:1004D000C0030193019B43F0CE4343F4D243019305
:1004E0001B4A019B13601B4B1B680193019B23F468
:1004F00040330193019B43F400330193154A019B60
:1005000013600A4B1B680193019B43F080530193D6
:10051000064A019B136000BF044B1B6803F00053A5
:10052000002BF9D000BF02B0704700BF0038024076
:100530001482190040380240007000400838024020
:100540000F3640040438024004700040003C024072
:10055000883802408C38024008B5FFF7A9FEFFF743
:10056000BDFEFFF7C7FEFFF7C7FEFFF7E1FE00BFC6
:1005700008BD08B5FFF764FEFFF7F2FEFFF7ECFFDA
:1005800000BF08BD00BF704708B5FFF7FBFF00BF05
:1005900008BD000000B591B00190019B1B0903F05C
:1005A0000F030993099B082B02D96FF0150377E11C
:1005B0009B4A099B52F823300893019B03F00F03D9
:1005C0000793019B03F44023B3F5002F17D0B3F535
:1005D000402F17D0B3F5802F02D000230A9314E0E8
:1005E000019B03F48073002B14BF01230023DBB2B3
:1005F0001946019800F068F901230A9305E00223E7
:100600000A9302E003230A9300BFEFF3108372B64C
:10061000ADF80E30BDF80E30ADF81A300A9B022B43
:1006200005D1019B1B0B03F00F030D9301E0002389
:100630000D930D9B002B29D0079B072B04D820235B
:100640000C93079B0B9304E024230C93079B083B1C
:100650000B93089A0C9B13441B680F930B9B9B00F6
:100660000F2202FA03F3DB431A460F9B13400F934A
:100670000B9B9B000D9A02FA03F30F9A13430F93FF
:10068000089A0C9B13441A460F9B1360089B1B6827
:100690000F93079B5B00032202FA03F3DB431A4626
:1006A0000F9B13400F93079B5B000A9A02FA03F318
:1006B0000F9A13430F93089B0F9A1A6000230E930F
:1006C0000A9B032B0FD0019B03F44033B3F5803F0B
:1006D00003D0B3F5003F03D005E001230E9302E001
:1006E00002230E9300BF089B0C331B680F93079BDC
:1006F0005B00032202FA03F3DB431A460F9B13400D
:100700000F93079B5B000E9A02FA03F30F9A1343B1
:100710000F93089B0C331A460F9B13600D9B002B05
:1007200029D1079B072B04D820230C93079B0B93FD
:1007300004E024230C93079B083B0B93089A0C9B23
:1007400013441B680F930B9B9B000F2202FA03F3C9
:10075000DB431A460F9B13400F930B9B9B000D9A94
:1007600002FA03F30F9A13430F93089A0C9B134456
:100770001A460F9B13600A9B012B02D00A9B022B87
:1007800018D1019B03F44063B3F5006F0BD0B3F5B0
:10079000406F0BD0B3F5806F02D000230E9308E0BA
:1007A00001230E9305E002230E9302E003230E9330
:1007B00000BF01E000230E93089B08331B680F93D2
:1007C000079B5B00032202FA03F3DB431A460F9BED
:1007D00013400F93079B5B000E9A02FA03F30F9AE4
:1007E00013430F93089B08331A460F9B1360089B13
:1007F00004331B680F930122079B02FA03F30E9345
:100800000A9B012B02D00A9B022B0BD1019B03F404
:100810000073002B06D00F9A0E9B13430F9306E034
:10082000D00003080E9BDB430F9A13400F93089BE5
:1008300004331A460F9B13600A9B012B25D0019BA2
:1008400003F48073002B20D0079B03F00C02164B9F
:1008500013440593059B1B680F93079B9B0003F0B4
:100860000C0304930F22049B02FA03F3DB431A46A2
:100870000F9B13400F93099A049B02FA03F30F9AFC
:1008800013430F93059B0F9A1A60BDF81A30ADF809
:100890000C30BDF80C3013F0010F00D162B600230C
:1008A000184611B05DF804FB0838014000B583B06C
:1008B0000190019BDBB201930198FFF76BFE0346A9
:1008C000184603B05DF804FB86B001900B468DF826
:1008D0000330019B1B0903F00F030493049B082BB7
:1008E0001DD8104A049B52F823300393019B03F058
:1008F0000F0302939DF80330002B05D00122029BC9
:1009000002FA03F3059305E0029B1033012202FA79
:1009100003F30593039B18331A46059B136000BF2E
:1009200006B07047D000030886B00190019B1B09F8
:1009300003F00F030593059B082B16D80D4A059B62
:1009400052F823300493019B03F00F030393049B9D
:1009500010331B680121039A01FA02F21340002BA5
:1009600014BF01230023DBB200E00023184606B0C9
:10097000704700BFD000030882B003468DF80730EF
:1009800000BF064B1B6803F04003002BF9D0044A5C
:100990009DF80730136000BF02B07047001001409F
:1009A0000410014000B583B010220021264800F059
:1009B0000DFD2648FFF7EEFD2548FFF7EBFD254B23
:1009C0001B680193019B23F400530193214A019B6F
:1009D0001360214B1B680193019B23F47D5301930A
:1009E000019B43F4005301931B4A019B1360194B75
:1009F0001B680193019B23F4BB5323F01C03019359
:100A0000144A019B1360154B1B680193019B23F44F
:100A1000E06323F001030193104A019B1360104B24
:100A200040F20D321A600B4B1B680193019B43F49B
:100A3000005343F00C030193064A019B136000BF6F
:100A400003B05DF804FB00BF44380240097C090094
:100A50000A7C09000C1001401010014014100140E4
:100A60000810014082B001900091019BD3F8B4209E
:100A7000009B13441B68184602B0704784B0039073
:100A800002910192039BD3F8B420029B13441A46AF
:100A9000019B136000BF04B0704700B585B00190A2
:100AA0000B46ADF80230019BBDF80220A3F8A02050
:100AB0000C210198FFF7D6FF0390039B23F4D0731A
:100AC0000393BDF8023003F4D073039A13430393E6
:100AD000039A0C210198FFF7D1FF14210198FFF729
:100AE000C1FF0390039B23F001030393BDF8023081
:100AF00003F00103039A13430393039A142101980B
:100B0000FFF7BCFF00BF05B05DF804FB00B585B082
:100B100001900B46ADF80230EFF3108372B6ADF8DA
:100B20000A30BDF80A30ADF80E30BDF80230194673
:100B30000198FFF7B2FFBDF80E30ADF80C30BDF8EC
:100B40000C3013F0010F00D162B600BF05B05DF8A4
:100B500004FB00B587B001900091EFF3108372B6EB
:100B6000ADF80A30BDF80A30ADF81630009B002B06
:100B700017D00C210198FFF775FF049014210198FC
:100B8000FFF770FF0390049B9BB203F4D0739AB2FB
:100B9000039B9BB203F001039BB213439AB2009BE9
:100BA0001A8000210198FFF778FFBDF81630ADF8E4
:100BB0000830BDF8083013F0010F00D162B600BF55
:100BC00007B05DF804FB00B589B00190019BD3F834
:100BD000883004930C210498FFF744FF0590049B90
:100BE000D3F8B020049BD3F8A8305B08B2FBF3F332
:100BF0000393039B5B090793079B5B01039AD31A3B
:100C000001335B080693079B002B0ED1059B43F431
:100C100000430593039B1B090793079B1B01039A42
:100C2000D31A01335B08069303E0059B23F40043CA
:100C30000593079B1B010293029A069B13430293A1
:100C4000059A0C210498FFF719FF029A08210498CD
:100C5000FFF714FF059B23F4B0530593049B93F80F
:100C6000A530012B04D1059B43F4C063059308E034
:100C7000049B93F8A530022B03D1059B43F48063BA
:100C80000593049B93F8A630092B09D0049B93F895
:100C9000A630082B08D1049B93F8A530002B03D075
:100CA000059B43F480530593059A0C210498FFF7A4
:100CB000E5FE10210498FFF7D5FE0590059B23F46F
:100CC00040530593049B93F8A730002B03D0059B5A
:100CD00043F400530593059A10210498FFF7CEFEC4
:100CE00014210498FFF7BEFE0590059B23F4407382
:100CF0000593059A14210498FFF7C0FE00BF09B0C0
:100D00005DF804FB00B587B001900B468DF8033009
:100D1000019BD3F888300393039BD3F8B430164A71
:100D2000934211D0154A934203D0154A934205D0FD
:100D30001FE010230593134B04930BE04FF4003393
:100D40000593114B049305E04FF4802305930E4B5C
:100D5000049300BF9DF80330002B05D0059A0021B5
:100D6000049800F033FB04E000220599049800F099
:100D70002DFB07B05DF804FB004800400010014067
:100D800000440040443802404038024000B585B07D
:100D90000190019BD3F88830029301210198FFF75D
:100DA000B1FF029BD3F8B8301846FFF7F3FB029B64
:100DB000D3F8BC301846FFF7EDFB10210298FFF77F
:100DC00051FE0390039B23F47D530393029B93F8FE
:100DD000A730002B03D0039B43F400530393039AE3
:100DE00010210298FFF74AFE0C210298FFF73AFE05
:100DF0000390039B23F4BE730393039A0C21029880
:100E0000FFF73CFE14210298FFF72CFE0390039B92
:100E100023F4E06323F001030393039A142102985F
:100E2000FFF72CFE0198FFF7CEFE0C210298FFF78A
:100E300019FE0390039B43F4005343F00C03039308
:100E4000039A0C210298FFF719FE029B0022A3F8D7
:100E5000A020029B012283F8A4200023184605B09D
:100E60005DF804FB00B585B00190019BD3F8883094
:100E70000393039B002283F8A42000210398FFF72B
:100E800068FE00210198FFF73DFF0C210398FFF752
:100E9000E9FD0290029B23F4005323F00C0302931C
:100EA000029A0C210398FFF7E9FD039BD3F8B830B1
:100EB0001846FFF7FBFC039BD3F8BC301846FFF73E
:100EC000F5FC00BF05B05DF804FB000000B585B07F
:100ED0000190019BD3F888300393039B93F8AC30C7
:100EE000039A0949184601F04DF80290029B002B25
:100EF00005D1039B93F8AC30184600F01DFC029B13
:100F0000184605B05DF804FB3F0F000800B585B03A
:100F10000190019BD3F888300393039B93F8AC3086
:100F2000184600F0E5FB039B93F8AC30002200214B
:100F3000184601F027F800BF05B05DF804FB00B5C6
:100F400089B0039002910192019B059301238DF8D2
:100F50001B300023079344E000238DF81B30002151
:100F60000598FFF77FFD03469AB2059BA3F8A220E0
:100F7000059BB3F8A23003F02003002B0ED0059B95
:100F8000B3F8A03003F02003002B07D0059B1846D0
:100F900007F0EDFB01238DF81B300AE0059BB3F849
:100FA000A23003F00E03002B03D004210598FFF7B5
:100FB00059FD059BB3F8A23003F08003002B0DD040
:100FC000059BB3F8A03003F08003002B06D0059BEF
:100FD000184607F06DFB01238DF81B30079B01338A
:100FE0000793079BFF2B03DC9DF81B30002BB3D12D
:100FF0000023184609B05DF804FB00B58BB00390E0
:1010000002910192039B9B680893089B9B6907933D
:10101000079BD3F88830069300230993029B40F284
:101020000112934203D0B3F5817F32D072E0019B6D
:101030000593059B002B03D16FF0150309936DE019
:10104000069B93F8A530002B02D04FF4807200E08D
:101050000022069B93F8A530012B02D14FF40073B8
:1010600000E000231A43069B93F8A730002B01D021
:10107000402300E00023134343F030031A46059B4E
:101080009A60069BD3F8A830194605980AF03CF8F8
:1010900044E0019B0493049B002B03D16FF01503E4
:1010A00009933BE0049B9B6803F03003302B03D093
:1010B0006FF01503099331E0049B9B6803F4807380
:1010C000002B0CD0049B9B6803F40073002B01D011
:1010D000012200E00222069B83F8A52003E0069B84
:1010E000002283F8A520049B9B6803F04003002B9B
:1010F00014BF01230023DAB2069B83F8A7200498CB
:101100000AF04CF80246069BC3F8A8200798FFF7A0
:101110005AFD03E06FF01803099300BF099B1846BE
:101120000BB05DF804FB00B585B001900091019B08
:10113000D3F88830039304210398FFF793FC0290BF
:10114000039BB3F8A2301B041A46029B1A43009B70
:101150001A60039B0022A3F8A220029BDBB2184670
:1011600005B05DF804FB00B587B001900B468DF823
:101170000330019BD3F888300493EFF3108372B6E9
:10118000ADF80C30BDF80C30ADF80E30049BB3F860
:10119000A030ADF816309DF80330002B06D0BDF816
:1011A000163043F02003ADF8163007E0BDF81630D6
:1011B00023F4907323F00103ADF81630BDF8163018
:1011C00019460498FFF7A2FCBDF80E30ADF80A30BE
:1011D000BDF80A3013F0010F00D162B600BF07B0AE
:1011E0005DF804FB00B585B00190019BD3F8883011
:1011F000039300210398FFF735FC034603F0200317
:10120000002B14BF01230023DBB2184605B05DF8A4
:1012100004FB00B585B001900091019BD3F88830A4
:101220000393009B1A4604210398FFF727FC00BF95
:1012300005B05DF804FB00B587B001900B468DF852
:101240000330019BD3F888300593EFF3108372B617
:10125000ADF80E30BDF80E30ADF812309DF8033009
:10126000002B0DD0059BB3F8A03043F08003ADF800
:101270001030BDF8103019460598FFF747FC09E01B
:10128000059BB3F8A03023F080039BB21946059864
:10129000FFF73CFCBDF81230ADF80C30BDF80C3057
:1012A00013F0010F00D162B600BF07B05DF804FB78
:1012B00000B585B00190019BD3F8883003930021DD
:1012C0000398FFF7CFFB034603F08003002B14BF06
:1012D00001230023DBB2184605B05DF804FB0000D3
:1012E00000B583B00023019310E00E4A019B52F831
:1012F0002330002B07D00B4A019B52F823300021EA
:101300001846FFF726FC019B01330193019B072B35
:10131000EBD9054B1846FFF739FD00BF03B05DF868
:1013200004FB00BF240103080000002000B587B0C3
:1013300000230493204B1946204807F0F5F81E4B74
:1013400019461F4807F0F0F8012304936B4610225A
:101350001C49184609F028FE0023059325E01A4A87
:10136000059B52F82330002B19D0174A059B52F8E1
:1013700023309B78002B14D1049B5A1C0492DBB2BF
:101380003033DBB28DF809300F4A059B52F8233019
:101390001A466B461146184607F0C6F802E000BF31
:1013A00000E000BF059B01330593059B072BD6D9B1
:1013B00000BF07B05DF804FB0000002044010308F3
:1013C00054010308600103082401030888B0039056
:1013D00002910192EFF3108372B6ADF81430BDF8AC
:1013E0001430ADF81E30039B1B680693029BDB4351
:1013F000069A13400693069A019B13430693039B98
:10140000069A1A60BDF81E30ADF81630BDF81630D9
:1014100013F0010F00D162B600BF08B07047EFF3C0
:1014200005801EF0040F02D0EFF309818D466A4655
:1014300002F12002EFF310832DE9FC4F6946A1F180
:101440004C0222F00702954600F0BAF9B0E8FC4FD2
:101450001EF0040F0CBF80F3088880F3098883F323
:101460001088704700B587B0039002910192EFF3A6
:10147000108372B6ADF81630044A0549032009F00E
:1014800031FE044A0021002007F084FFFC0103081C
:101490006C0103088801030800B587B0039002912E
:1014A0000192EFF3108372B6ADF81630044A054985
:1014B000032009F017FE044A0021002007F06AFF0C
:1014C00008020308900103088801030800B587B0EB
:1014D000039002910192EFF3108372B6ADF81630CB
:1014E000044A0549032009F0FDFD044A00210020BB
:1014F00007F050FF18020308B00103088801030831
:1015000000B587B0039002910192EFF3108372B699
:10151000ADF81630044A0549032009F0E3FD044AFA
:101520000021002007F036FF2C020308D801030831
:101530008801030886B00390029101920093039BF7
:101540000F2B15DD039B103B0593059B5B1140336F
:101550009B001A46009B134403F1E022029B1A6091
:10156000059B03F01F0301229A40019B1A6027E0AC
:10157000029B154A1A60039B042B04D1019B4FF474
:1015800080321A601CE0039B052B04D1019B4FF4B1
:1015900000321A6014E0039B062B04D1019B4FF428
:1015A00080221A600CE0039B0F2B06D1029B074A96
:1015B0001A60019B01221A6002E04FF0FF3300E045
:1015C0000023184606B0704724ED00E010E000E06C
:1015D00000B585B0002301930CE0019B5B116033E3
:1015E0009B0003F1E0231A464FF0FF331360019B89
:1015F00020330193019B5A2BEFDD2D4B2D4A1A60AE
:101600002D4B4FF080321A602C4B4FF080321A6015
:101610002B4B4FF080321A602A4B1B680133DB00E2
:101620000293294B039306E0039B4FF080321A602C
:10163000039B04330393029B5A1E0292002BF3D1A7
:10164000002222490B2000F09DFC002220490320AB
:1016500000F098FC00221F49022000F093FC0022B9
:101660001D49042000F08EFC00221C49052000F0DA
:1016700089FC00221A49062000F084FC0022194946
:101680000E2000F07FFC002217490C2000F07AFCAD
:1016900000221649002000F075FCF0230093009B07
:1016A00083F3118862B600BF05B05DF804FB00BF8C
:1016B00008ED00E00000000818ED00E01CED00E07F
:1016C00020ED00E004E000E000E400E0ED18000898
:1016D0002518000865140008B518000889170008C7
:1016E0004119000899140008CD14000801150008DC
:1016F00000B587B0019003AA04A980230198FFF7E1
:1017000019FF0346002B13D1019B0F2B04DD049B13
:101710001A46039B13600BE0049B1B680593039B15
:10172000DB43059A13400593049B1A46059B1360FF
:1017300000BF07B05DF804FB00B587B0019003AAB5
:1017400004A900230198FFF7F5FE0346002B12D1F0
:10175000019B0F2B04DD049B1A46039B13600AE0D8
:10176000049B1B680593039B059A13430593049BF5
:101770001A46059B136000BF07B05DF804FB82B0FA
:10178000019000BF02B0704700B587B0039002918E
:101790000192094B1B680593EFF3108372B6ADF805
:1017A0001230029B054A0021002000F0F7FD0023C3
:1017B000184607B05DF804FB28ED00E03C02030882
:1017C00000B583B001900091042000F06FF9144B34
:1017D0001B68002B04D1124A009B13600023009366
:1017E0000198FFF7CCFF0E4B1B681946019800F0DB
:1017F00009FC009B002B0AD1094B1A68009B9A42F6
:1018000002D0074B1B680093054B00221A6004208E
:1018100000F05EF9009B184603B05DF804FB00BFC2
:10182000500B002000B58BB00390029101921C4B2D
:101830001B6809931B4B1B680593029B0893089B2D
:1018400044331B68023B0793079B174A934213D309
:10185000079B164A93420FD2079B1B88ADF81A309C
:10186000BDF81A30B3F55F4F06D1019A029903987B
:1018700000F03CF803460FE0099B03F00203002B45
:10188000EFF3108372B6ADF81830029B084A0021BE
:10189000002000F083FD002318460BB05DF804FB28
:1018A0002CED00E028ED00E000000008DF730308E5
:1018B0004402030800B587B0039002910192094BDE
:1018C0001B680593EFF3108372B6ADF81230029BDC
:1018D000054A0021002000F061FD0023184607B0F2
:1018E0005DF804FB28ED00E04C02030886B003908D
:1018F00002910192029B0593059BDB6A0493049B72
:10190000012B02D0022B07D013E0059B30331B685C
:101910001A460A4B1A600CE0059B30331B681A46C6
:10192000059B1360059B34331B681A46034B1A60F2
:1019300000BF0023184606B0704700BF500B0020C0
:1019400000B587B0039002910192094B1B68059383
:10195000EFF3108372B6ADF81230029B054A0021F6
:10196000002000F01BFD0023184607B05DF804FBC3
:1019700028ED00E05402030808B500F021F8FFF755
:10198000D5FC022000F092F800BF08BD00B583B07E
:1019900001900091012000F089F8084B1B681A465D
:1019A000019B1A60054B1B68C3F1005303F54033DC
:1019B000009A136000BF03B05DF804FBCC0003087D
:1019C00008B54FF480314FF0805009F0BFFD00BFE3
:1019D00008BD000008B500F05BF800F08DF8034981
:1019E000072009F07FFB00BF08BD00BF5C020308B1
:1019F00000B583B00190019B03F00103002B03D0DD
:101A000000210848FEF760FF019B03F00203002B52
:101A100003D000210448FEF757FF00BF03B05DF874
:101A200004FB00BF6D0804006E08040000B583B01D
:101A30000190019B03F00103002B03D00121084812
:101A4000FEF742FF019B03F00203002B03D00121AC
:101A50000448FEF739FF00BF03B05DF804FB00BF88
:101A60006D0804006E08040000B583B00190019B6E
:101A70001B0903F00F031846FFF7BAFF019B03F0A1
:101A80000F031846FFF7D2FF00BF03B05DF804FB59
:101A900008B50448FEF77EFD0348FEF77BFD00BF56
:101AA00008BD00BF6D0804006E08040000B583B0D7
:101AB0000190064A019B32F81330DBB21846FFF75B
:101AC000D3FF00BF03B05DF804FB00BF740203083E
:101AD00000B583B00190074A019B32F813301B0A0E
:101AE0009BB2DBB21846FFF7BFFF00BF03B05DF843
:101AF00004FB00BF7402030800B585B00023039304
:101B000009E01F4A039B52F823301846FEF742FDB6
:101B1000039B01330393039B252BF2D90AF02EFD7F
:101B200042F6D4130293029901200AF06FFD029944
:101B300002200AF06BFD134B0293029902200AF077
:101B400045FD09200AF084FD0023019302E0019B7A
:101B500001330193019B42F20F729342F7DD0A2099
:101B60000AF076FD6B200AF073FD07480AF070FD5D
:101B700040F2AB200AF00CFD00BF05B05DF804FB9D
:101B800084020308727422020C62040000B587B05C
:101B9000B14B01221A7000230593A8E0059A134661
:101BA0005B0113449B00AD4A134484220021184674
:101BB00009F0C8F9A949059A13465B0113449B0033
:101BC0000B440C33059A1A60A449059A13465B012D
:101BD00013449B000B441C3303221A709F49059A3F
:101BE00013465B0113449B000B4414339C4A1A6058
:101BF0009A49059A13465B0113449B000B44183322
:101C0000974A1A609549059A13465B0113449B0055
:101C10000B441E3306221A80924A059B924942F8D1
:101C200033108E49059A13465B0113449B000B4405
:101C30001C331B788D4ADB0013441B7903F0080327
:101C4000002B17D08549059A13465B0113449B006E
:101C50000B44443319688148059A13465B011344C9
:101C60009B0003441C331B781A46804B53F83230D8
:101C70000B440CE07949059A13465B0113449B0021
:101C80000B441C331B781A46784B53F832300493BC
:101C9000059A13465B0113449B00704A1344039357
:101CA000039B00225A60049B1A68039B1A60049BE2
:101CB0001B68002B06D1049B039A1A60049B039AAD
:101CC0005A6006E0049B1B68039A5A60049B039ABF
:101CD0001A60059A13465B0113449B005F4A1A443D
:101CE0006349059B41F82320059B01330593059B20
:101CF000002B7FF753AF584B02221A706A4601AB94
:101D000011461846FFF742FE019B009A11461846FD
:101D100009F008FC574B04221A6004E0554B1B687D
:101D20005B00544A1360534B1B68012BF6DD514B8B
:101D30001B689B00184609F04DFC03461A464E4BA3
:101D40001A600023059361E04A4B1B685A1E059BED
:101D500013400293484B1A68029B9B00D118059AC6
:101D600013465B0113449B003C4A13440B60059AE5
:101D700013465B0113449B00384A98183749059A6B
:101D800013465B0113449B000B441E331B88DBB2DC
:101D9000194601F09BFA3149059A13465B01134439
:101DA0009B000B4408331B681B6C059AD2002D491D
:101DB0000A441A61059A13465B0113449B00274AA3
:101DC000134418460AF046FE059A13465B01134475
:101DD0009B00224A1344184601F008F9059A13465D
:101DE0005B0113449B001D4A1344184601F0BEFAE0
:101DF0001A49059A13465B0113449B000B440833B0
:101E00001B6803221A73059B01330593059B002B66
:101E10009ADD1A4B00221A600F4B03221A7000F051
:101E2000F9FC12F0EBFB00F093F801F04DF900F033
:101E30007FFF00F05BFE00F05FFC00F06FFC17F02E
:101E400031FFFFF799FD05F061FB034B04221A7087
:101E5000002305932FE000BF8C0B0020900B002087
:101E60008D1B0008140C00206C0303081C030308DE
:101E70005C0B0020880B0020840B0020800B0020CE
:101E8000059B002B0ADD059A13465B0113449B005A
:101E9000114A1344184601F0D1FA09E0059A134695
:101EA0005B0113449B000C4A1344184601F0A0FA4E
:101EB000059B01330593059B002BE1DD074B0522B4
:101EC0001A7000F035F8054B06221A7000F0D2FCAB
:101ED0000AF03AFBFCE700BF900B00208C0B0020BF
:101EE00000B58BB00023089303AB184607F024FF1E
:101EF00064238DF80D304FF40063069303AA00238A
:101F0000019308AB0093134600220449044800F0F3
:101F1000E2FE099000BF0BB05DF804FB81CC000825
:101F20007803030808B5FFF7DBFF00BF08BD00001A
:101F300008B501220449054801F0E2F8FFF7F2FF75
:101F40000023184608BD00BF840303088803030864
:101F500000B583B00023019307E0084A019B0849BC
:101F600042F83310019B01330193019B6A2BF4DD8E
:101F7000FFF72EFB00BF03B05DF804FB1C0C002034
:101F80006D20000800B589B00390029101926FF0B6
:101F900015030793039B6A2B2BD8039B0693EFF340
:101FA000108372B6ADF81430BDF81430ADF81630A9
:101FB000029B002B06D10398FFF79AFB0F4B02936D
:101FC000002301930E49069B029A41F833200C4AE4
:101FD000069BDB001344019A5A60BDF81630ADF839
:101FE0001230BDF8123013F0010F00D162B6002399
:101FF0000793079B184609B05DF804FB6D200008A5
:102000001C0C002000B587B001900091134B059384
:1020100000230493019B0393019B6A2B10D8039B1D
:102020000F4A52F83330002B0AD0039B0C4A52F867
:1020300033300593039B0A4ADB0013445B68049327
:10204000059B049A009901989847064B1B68064A1D
:10205000136000BF07B05DF804FB00BF6D200008EF
:102060001C0C0020540B00205C0B002000B587B036
:10207000039002910192EFF3108372B6ADF816301F
:10208000039B054A0549032009F02CF8044A002166
:10209000002007F07FF900BFA80303088C030308A2
:1020A000A003030882B0064B1B68002B14BF01235A
:1020B00000238DF807309DF80730184602B07047AE
:1020C000500B0020F0B58FB00B900A910B9B23F0C2
:1020D0001F030D932BE00D9B0C930D9B09930C9B01
:1020E0001B680C9A043212680C99083109680C9824
:1020F0000C3000680C9C103424680C9D14352D683D
:102100000C9E183636680C9F1C373F68079706965A
:10211000059504940390029101920093099B084A4B
:102120000849002008F0DEFF0D9B20330D930A9B29
:1021300023F01F020D9B9A42CDD800BF0FB0F0BD17
:10214000E4050308F403030800B587B00390029187
:1021500001920093019A009B13440593039B174A35
:102160001749002008F0BEFF019B144A15490020C2
:1021700008F0B8FF009B114A1349002008F0B2FF95
:102180009DF8243083F00103DBB2002B0AD0029BC0
:102190000A4A0E49002008F0A5FF05990298FFF7AA
:1021A00091FF06E0019A009B134419460198FFF73E
:1021B00089FF00BF07B05DF804FB00BFF00503080E
:1021C00030040308400403085004030864040308AF
:1021D00000B58BB003900291039B1B6C0793039B8C
:1021E0009B6B0693079A069B134405930023099360
:1021F00000238DF82330029A079B9A4206D3029A55
:10220000059B9A4202D2029B099307E001238DF8B5
:1022100023300D4A0D49002008F064FF099B002B74
:1022200003D19DF82330002B0AD009999DF8233063
:10223000019300230093069B079A0548FFF784FF4C
:1022400000BF0BB05DF804FBFC0503087404030831
:10225000A8040308F0B5B1B01590149100231F93A2
:1022600020AB3C220021184608F06CFE1FAB402238
:102270001946159801F006F917AB20221946159852
:1022800000F05CFB17AB2C21184608F075FE2F9070
:102290002F9B002B02D02F9B20221A70159BDB68EE
:1022A0000F93159B9B68002B03D0159B9B685B6865
:1022B00001E04FF0FF33159A127C1092159AD28BE1
:1022C000521102F00302274951F822201192159968
:1022D000C98B01F00301244850F82120129215986F
:1022E000C08B00F00400002801D04E2000E02D201B
:1022F000159CE48B04F01004002C01D0502400E065
:102300002D24159DED8B05F40065002D01D0502581
:1023100000E02D25159EF26C1392159FBF6C159A47
:10232000126C1599896B1FAE0D96104E0C960B9181
:102330000A920997139A089217AE07960695059484
:102340000490129A0392119A0292109A01920093A9
:102350000F9B074A0749002008F0C4FE00BF31B0B8
:10236000F0BD00BF40020020D4050308F8040308B4
:1023700008060308B004030808B5054A054900200B
:1023800008F0B0FE0021044800F0F8F900BF08BDD5
:1023900014060308040503085522000800B5B1B06F
:1023A0000790069105920493FFF77CFE0346002BED
:1023B00002D0434B1B6801E0424B1B682E93012364
:1023C0008DF8BF30049B002B04D13F480AF06BF816
:1023D0003D4B049306F06EFAFFF764FE034683F06C
:1023E0000103DBB2002B08D02E9BDB8B03F0030331
:1023F000022B02D000238DF8BF309DF8BF3083F050
:102400000103DBB22E99184600F068F809AB1846B4
:1024100006F0EEFF09AA09AB7D33039309AB4A33FB
:10242000029309AB3533019309AB1533009313467F
:10243000264A2749002008F055FE059B002B01D0B5
:10244000059900E02349079B002B01D0079B00E082
:10245000204B2E9A92690292069A019200930B46A3
:102460001A4A1D49002008F03DFE04980AF0BCF904
:1024700004980AF0B0F9034619462E98FFF7A8FE13
:1024800006F018FA9DF8BF30002B14D0FFF774FF48
:1024900006F010FA2E99022000F020F80021022008
:1024A00000F0A8F8EFF3108372B6ADF8B630FA205A
:1024B0000AF0B6FAFBE700BF31B05DF804FB00BFDD
:1024C0005C0B0020540B0020800F00202006030826
:1024D000740503089C050308A005030800B58BB02C
:1024E000019000911E4B0793EFF3108372B6ADF885
:1024F0000E30BDF80E30ADF81A304FF0FF330893B0
:1025000000230593079B1B68099315E0099B5B68F3
:102510000493099B1B68009A019909989847059BA9
:10252000002B04D0059B1B685A1C059B1A60049B5A
:102530000993089B013B0893099B002B02D0089B41
:10254000002BE3D1BDF81A30ADF80C30BDF80C30DB
:1025500013F0010F00D162B600BF0BB05DF804FBB1
:10256000CC0F002088B00190214B0593EFF310832E
:1025700072B6ADF80A30BDF80A30ADF81230059BDE
:102580000793019B03930023069313E0079B1A68AC
:10259000039B9A4203D16FF0100306930FE0039B55
:1025A0009A68079B1B689B689A4208DC079B1B681C
:1025B00004330793079B1B68002BE7D100E000BFA3
:1025C000069B002B06D1079B1A68039B5A60079B4A
:1025D000039A1A60BDF81230ADF80830BDF8083023
:1025E00013F0010F00D162B600BF08B0704700BF02
:1025F000D00F002000B58BB0019000911E4B0793C7
:10260000EFF3108372B6ADF80E30BDF80E30ADF8B2
:102610001A304FF0FF33089300230593079B1B6884
:10262000099315E0099B5B680493099B1B68009A5A
:10263000019909989847059B002B04D0059B1B68BE
:102640005A1C059B1A60049B0993089B013B089345
:10265000099B002B02D0089B002BE3D1BDF81A3058
:10266000ADF80C30BDF80C3013F0010F00D162B69C
:1026700000BF0BB05DF804FBD00F002000B587B0A1
:1026800001900B46ADF8023013468DF80130BDF8CD
:102690000230542202FB03F3184608F079FF034688
:1026A0000593059B002B23D0002304931BE0059B7F
:1026B0009DF801201A72019B0393059B0293039BD3
:1026C0001A68029B1A60029B039A5A60039B1B685C
:1026D000029A5A60039B029A1A60059B5433059331
:1026E000049B01330493BDF80220049B9A42DEDC74
:1026F00000BF07B05DF804FB08B5002208210548BB
:10270000FFF7BCFF022208210348FFF7B7FF00BF15
:1027100008BD00BF500200205802002000B585B05F
:102720004FF4307008F034FF03460393039B002BF3
:102730001DD00023029317E00F4B0193039B0093DE
:10274000019B1A68009B1A60009B019A5A60019BCA
:102750001B68009A5A60019B009A1A60039B5833C9
:102760000393029B01330293029B072BE4DD00BF1E
:1027700005B05DF804FB00BF6002002000B587B023
:1027800001900091EFF3108372B6ADF81030BDF8F0
:102790001030ADF812300023059314E0134B1A6883
:1027A000059B9B0013441B68002B09D00F4B1A6834
:1027B000059B9B0013441A68019B0099104698479B
:1027C000059B013305930A4B1B68059A9A42E5DB8A
:1027D000BDF81230ADF80E30BDF80E3013F0010F19
:1027E00000D162B600BF07B05DF804FB840B002087
:1027F000880B002082B0064B1B68002B14BF0123FE
:1028000000238DF807309DF80730184602B0704756
:10281000500B002000B583B00D4B1B680193019B4A
:10282000002B10D0FFF7E6FF034683F00103DBB275
:10283000002B08D0019BB3F920309BB201339BB22F
:102840001AB2019B1A840023184603B05DF804FBFA
:10285000540B002082B0064B1B68002B14BF0123D1
:1028600000238DF807309DF80730184602B07047F6
:10287000500B002000B585B02E4B1B680393039BC3
:10288000002B51D0FFF7E6FF034683F00103DBB2D4
:10289000002B49D0EFF3108372B6ADF80830BDF8C5
:1028A0000830ADF80A30039BB3F92030002B08DD67
:1028B000039BB3F920309BB2013B9BB21AB2039B3E
:1028C0001A84039BB3F92030002B23DC039B0022E6
:1028D0001A84194B1B68002B0AD000F035FE034602
:1028E000002B05D0134B1B68039918460AF046F8D5
:1028F000039BDB8B03F06003202B0BD1039B5B6AF4
:10290000002B07D10B4B1A68039B9A4202D0039B02
:1029100014225A62BDF80A30ADF80630BDF8063010
:1029200013F0010F00D162B60023184605B05DF820
:1029300004FB00BF540B0020600B002000B589B0E1
:10294000039002910192EFF3108372B6ADF8163046
:10295000BDF81630ADF81E30039B1B7F052B1BD135
:10296000039B5B6C9B7803F00403002B14D0039B48
:102970005B6CDB680693BDF81E30ADF81430BDF813
:10298000143013F0010F00D162B6069B0F4A019973
:10299000029807F00AFA14E0BDF81E30ADF81230C4
:1029A000BDF8123013F0010F00D162B6039B1B7FFC
:1029B0001A46074B53F82230019A1946029808F03C
:1029C000F3FA00BF09B05DF804FB00BFAC060308D2
:1029D000C006030800B587B001900B46ADF8023081
:1029E00013468DF80130BDF802305B01184608F03F
:1029F000CFFD03460393039B002B2AD0039B059333
:102A00000023049320E0059B9DF801201A77059B85
:102A100003F1200205920293029B00221A60019B9F
:102A20001B68002B06D1019B029A1A60019B029A37
:102A30005A6006E0019B5B68029A1A60019B029A49
:102A40005A60049B01330493BDF80220049B9A4210
:102A5000D9DC039B184607B05DF804FB00B587B0CE
:102A600001900B46ADF8023013468DF80130BDF8E9
:102A7000022013469B0013449B00184608F088FD73
:102A800003460393039B002B2AD0039B059300234B
:102A9000049320E0059B9DF801201A74059B03F127
:102AA000140205920293029B00221A60019B1B688C
:102AB000002B06D1019B029A1A60019B029A5A6070
:102AC00006E0019B5B68029A1A60019B029A5A60B9
:102AD000049B01330493BDF80220049B9A42D9DC85
:102AE000039B184607B05DF804FB000008B5204BB7
:102AF00000221A601E4B00225A601E4B00221A60F0
:102B00001C4B00225A601C4B00221A601A4B0022F8
:102B10005A601A4B00221A60184B00225A60184B58
:102B200000221A60164B00225A600022042111482C
:102B3000FFF750FF0246134B1A60022208210E488D
:102B4000FFF748FF0246104B1A60002204210B4891
:102B5000FFF784FF02460D4B1A6002220821084845
:102B6000FFF77CFF02460A4B1A6000BF08BD00BF9A
:102B7000D40F0020DC0F0020E40F0020EC0F002019
:102B8000F40F0020FC0F0020001000200410002093
:102B90000810002000B58DB00790069105920493AF
:102BA000842008F017FD03460B930B9B002B02D1EA
:102BB0006FF00B0332E00B9B0022DA83049B109A28
:102BC00003920F9A02920E9A01920093059B069A25
:102BD00007990B9800F06CFD0A900A9B002B04DA11
:102BE0000B9808F0C5FC0A9B18E0119B002B0DD038
:102BF0000B9B1199184601F03EF90A900A9B002B95
:102C000004DA0B9800F0DCFD0A9B07E00B9BDB6805
:102C100009930B9B184601F009F8099B18460DB063
:102C20005DF804FB10B58EB00790069105920493F1
:102C300000230D9300230A93FFF7ECFD109B002B5C
:102C400009D0109B5B780B93109BDB680C93109B57
:102C50001B690D930DE008AB1946002000F0D6FC6F
:102C60000A900A9B002B2FDB089B0B934FF4006309
:102C70000C930C9C129B002B03D100F035FA0346F9
:102C800000E0129B049A03920293119B0193059B0F
:102C9000009323460D9A0B990698FFF77BFF099046
:102CA000099B002B02DA099B0A930EE0099B002B7B
:102CB00002D0079B099A1A60109B002B05D010992F
:102CC000099801F07FF800E000BFFFF7D3FD0A9BF1
:102CD00018460EB010BD00B58BB007900691059256
:102CE00004934FF0FF330893049B002B02D0049809
:102CF00001F0AAF8059B002B02D0059B1A6800E0A2
:102D0000002208A80D9B02930C9B0193049B009347
:102D10001346069A0799FFF785FF0990099B002B38
:102D200001DB089B00E0099B18460BB05DF804FB33
:102D300082B01F4B00221A601D4B00225A600023F4
:102D4000019329E01B49019A1346DB001344DB0081
:102D50000B44053301221A70019A1346DB00134419
:102D6000DB00144A13440093009B00221A60104BAE
:102D70001B68002B06D10E4A009B13600C4A009B77
:102D8000536006E00A4B5B68009A1A60084A009B91
:102D90005360019B01330193019B032BD2DD064B52
:102DA00000221A60044B00225A6000BF02B0704734
:102DB0002C1100200C1000203411002000B587B029
:102DC0000190EFF3108372B6ADF80A30BDF80A3007
:102DD000ADF81230104B1B6805930CE0059B1B6887
:102DE0000393059B9A68019B9A4202D1059800F0D3
:102DF00047F8039B0593059B002BEFD1BDF81230DC
:102E0000ADF80830BDF8083013F0010F00D162B6FC
:102E100000BF07B05DF804FB3411002086B00190BC
:102E200000230593019B002B23D0EFF3108372B690
:102E3000ADF80C30BDF80C30ADF80E300F4B1B6800
:102E4000049309E0049A019B9A4202D1019B0593E5
:102E500005E0049B1B680493049B002BF2D1BDF892
:102E60000E30ADF80A30BDF80A3013F0010F00D172
:102E700062B6059B184606B0704700BF34110020AB
:102E800000B585B001900198FFF7C8FF03461846CA
:102E900000F08AF80390039B002B08DA06F096FAFC
:102EA0000246039B5B4213604FF0FF3300E00023B8
:102EB000184605B05DF804FB00B589B00190EFF34A
:102EC000108372B6ADF80E30BDF80E30ADF81A3082
:102ED000019B0593324B1B68002B27D0059B002BD1
:102EE00024D02F4B1A68059B9A420CD12C4A059B83
:102EF0001B6813602A4B5A68059B9A4216D1284BCF
:102F000000225A6012E0264B1B6807930BE0079BD8
:102F10001A68059B9A4203D12149079806F075FC6F
:102F2000079B1B680793079B002BF0D1019B5B79E4
:102F300003F00103002B21D0019B0493049B00228A
:102F40001A60184B1B68002B06D1164A049B1360AD
:102F5000144A049B536006E0124B5B68049A1A60A3
:102F6000104A049B5360BDF81A30ADF80C30BDF820
:102F70000C3013F0010F00D162B60CE0BDF81A302E
:102F8000ADF80A30BDF80A3013F0010F00D162B677
:102F9000019808F0EDFA00BF09B05DF804FB00BF2E
:102FA000341100202C11002000B583B00190019B4A
:102FB000002B02D16FF0150314E0019B9B79012BCC
:102FC00007D9019B9B79013BDAB2019B9A710123DE
:102FD00008E0019B1033184600F020F80198FFF735
:102FE0006BFF0023184603B05DF804FB00B585B005
:102FF00001902C21019809F083FC0390039B002B86
:1030000002D16FF00B0305E0019B9B681A6C039BD8
:103010001A600023184605B05DF804FB00B589B0BE
:1030200001906FF015030593EFF3108372B6ADF8BE
:103030001030BDF81030ADF81230019B002B32D0AB
:10304000019B9B68002B2ED0002306931D4B1B6811
:10305000079304E0079B0693079B1B680793079B56
:10306000002B03D0079A019B9A42F3D1079B1B6860
:10307000002B08D0079B1B68079A1268D168079A33
:10308000D2680A44DA60069B002B04D00D490698EA
:1030900006F0BBFB02E00B4806F09DFB019B002203
:1030A0009A6000230593BDF81230ADF80E30BDF8DC
:1030B0000E3013F0010F00D162B6059B184609B01F
:1030C0005DF804FB4C11002008B509F011FA00BFAF
:1030D00008BD0000034B1B680133024A136000BFA8
:1030E000704700BF3C11002082B0044B1B68019365
:1030F000019B9B68DB6D184602B07047540B0020A3
:1031000010B58EB005900491039200230C93002318
:103110000B93059B002B02D116230B938DE0049B90
:10312000002B03D0049B1B78002B09D1039B002BA1
:1031300004D0059800F090F8034685E0002383E072
:10314000FFF768FB424B1B680A930A9B9B68099335
:10315000099BDB6D002B12D00599099800F099FFAF
:103160000B900B9B002B0ADB039B002B03D1FFF77B
:1031700081FB002368E00B99099800F0B8FF0598DF
:1031800007F048FF0446049807F044FF0346234431
:1031900002330893089B184608F0FAF90346079390
:1031A000079B002B02D10C230B9344E0099BDB6DA2
:1031B000002B12D0099B1B6E0C93099BDA6D0C9BA4
:1031C00002339B001946104608F0F2F90D900D9B52
:1031D000002B0DD10C230B932AE0082008F0D8F91E
:1031E00003460D930D9B002B02D10C230B931FE084
:1031F0000C9B5A1C0C929B000D9A1344079A1A6060
:103200000C9B9B000D9A134400221A60099B0D9A97
:10321000DA65099B0C9A1A660899049B0093059B32
:103220000C4A079806F0C1FDFFF724FB00230BE0D2
:10323000079808F09DF9FFF71DFB06F0C7F8024656
:103240000B9B13604FF0FF3318460EB010BD00BF4C
:10325000540B0020E806030800B587B001901A4B14
:103260001B680593059B9B680493019B002B0AD068
:10327000019B1B78002B06D03D21019807F07CFEB6
:103280000346002B07D006F0A1F802461623136070
:103290004FF0FF3313E0FFF7BDFA049B002B0BD078
:1032A0000199049800F0F5FE0390039B002B03DBCB
:1032B0000399049800F01BFFFFF7DCFA002318467F
:1032C00007B05DF804FB00BF540B002000B585B0CB
:1032D00001900B468DF803306FF00B0303939C2095
:1032E00008F078F903460293029B002B02D16FF09D
:1032F0000B0336E0102008F04BF903461A46029BF8
:103300001A61029B1B69002B26D0029B04229A7330
:10331000019B029A9A60029B6833184611F019FAD1
:10332000029800F0F3FD0390039B002B0DDB029B42
:103330002833184606F0ADF8029B1833002200210E
:10334000184606F024FB00230BE000BF029B1B691C
:10335000184608F00DF900E000BF029808F008F9DF
:10336000039B184605B05DF804FB000000B587B06C
:103370000190019B9B680593059B03F18002019BD3
:10338000DB8B03F00203002B14BF01230023DBB20D
:103390001946104608F0D1FA059B1B69019AD268BC
:1033A0001A60019BDA68059B5A60059B01225A73DB
:1033B000EFF3108372B6ADF80E30BDF80E30ADF8F5
:1033C00012300A4B1A68059B1A60084A059B136065
:1033D000BDF81230ADF81030BDF8103013F0010F09
:1033E00000D162B600BF07B05DF804FB48110020B1
:1033F00000B585B0019003210F4812F0F7FA039051
:10340000039B002B0CD10121002011F013FC0221A1
:10341000002011F00FFC019800F0A5FF034607E023
:10342000039B002B02DD039811F095FC6FF016034F
:10343000184605B05DF804FBF006030800B587B038
:103440000190019B9B6805930D4B1B680493049BA3
:103450009B6803F16802059B68331946104611F01A
:10346000A8FA0390039B002B01DA039B03E0019869
:1034700000F079FF0346184607B05DF804FB00BF73
:10348000540B002000B58BB00590049103920023EB
:103490000993059B002B08D0059B9B68002B04D04B
:1034A000059B9B681B6C002B04D1049B00221A70A7
:1034B000002340E0059BDB8B03F00303012B13D1BA
:1034C000059B0793079B9A69079BD3F88830009365
:1034D00013461B4A0399049806F067FC03461A46F4
:1034E000099B1344099320E0059B9B681B6C1B6997
:1034F0000433089311E0049A099BD018039A099B9E
:10350000D11A089B1A1D08921B680E4A06F04DFC42
:1035100003461A46099B13440993089B1B68002B1A
:1035200003D0099A039B9A42E5D3039B5A1E099B39
:10353000934228BF134618460BB05DF804FB00BF4A
:10354000000703080807030886B000238DF80F3032
:103550002C4B1B680493049BB3F92030002B4BD1F8
:10356000294B1B6805933EE0059B1B68029302E014
:10357000049B1B680493049B002B05D0059B1A7CBD
:10358000049B1B7C9A42F3D9049B5B680193019BCB
:10359000002B15D1059B049A1A60059B00225A60E6
:1035A000049B059A5A60174A059B1360049B0222EC
:1035B0001A77059B03221A7701238DF80F300EE04E
:1035C000059B049A1A60059B019A5A60019B059A13
:1035D0001A60049B059A5A60059B02221A77059B84
:1035E0000493029B0593059B002BBDD1064B002243
:1035F0001A60054B00225A609DF80F30184606B03D
:10360000704700BF540B0020600B002000B587B04E
:103610000190009100230593009B002B02D16FF0D5
:10362000150325E0144B1B680493019B002B04D069
:10363000049BDA68019B9A4205D1049B1B7C1A46C5
:10364000009B1A6013E0FFF7E5F8019801F0DAF942
:103650000390039B002B03D16FF00203059304E05A
:10366000039B1B7C1A46009B1A60FFF703F9059B1E
:10367000184607B05DF804FB540B002000B585B078
:103680000190009100990198FFF7C0FF0390039B00
:10369000002B08DA05F09AFE0246039B5B4213609A
:1036A0004FF0FF330393039B184605B05DF804FB0E
:1036B00000B589B00590049103920293059BDB8BC2
:1036C000DBB203F003038DF81B30059BDB8BDBB211
:1036D00019460598FFF7FAFD0790079B002B01DAC2
:1036E000079B67E0059B9B680D99184600F02CFC32
:1036F0000790079B002B3FDB0598FFF79FFE079085
:10370000079B002B3ADB029B002B07D0059B0A9AF4
:103710000299184609F05CF9079007E0059B9DF8AF
:103720001B200A99184608F0ADFF0790079B002B55
:1037300026DB059B1846FFF759FC0790079B002BDB
:1037400020DB9DF81B3000930B9B1C4A03990598C6
:1037500000F02EFA0790079B002B15DB0C9A0499BA
:10376000059800F04DFA0790079B002B0EDB05989B
:10377000FFF7FCFD079B1DE000BF08E000BF06E06F
:1037800000BF04E000BF02E000BF00E000BF029BFA
:10379000002B0AD1059BDB6B002B06D0059B9DF807
:1037A0001B201146184608F0EDFF059B184600F057
:1037B000A9FD079B184609B05DF804FB853C00088D
:1037C00000B587B00190019B0593059B5B6804934E
:1037D000059B1B680393049B002B03D1124A039B98
:1037E000136002E0049B039A1A60039B002B03D131
:1037F0000D4A049B536002E0039B049A5A60059BA8
:1038000000221A60059B00225A60019BDB8BDBB211
:1038100003F00303DBB21946019801F063F900BF1E
:1038200007B05DF804FB00BF780B002000B58BB03B
:103830000190EFF3108372B6ADF80E30BDF80E3084
:10384000ADF81E30474B1B680133099300230893E2
:1038500031E0099B002B01DC01230993424B1B68DB
:103860005A1E099B13400593404B1A68059B9B0009
:1038700013441B68002B18D13C4B1A68059B9B0016
:103880001344019A1A60019B099ADA60354A099B30
:103890001360BDF81E30ADF80C30BDF80C3013F0DD
:1038A000010F00D162B6002357E0099B0133099351
:1038B000089B013308932C4B1B68089A9A42C8DB7B
:1038C000294B1B68DB00184607F084FE034606936D
:1038D000069B002B0CD1BDF81E30ADF80A30BDF8A8
:1038E0000A3013F0010F00D162B66FF00B0334E021
:1038F0001D4B1B685B001C4A13600023089319E0F2
:103900001A4B1A68089B9B0013441B68DA68164B15
:103910001B68013B13400593059B9B00069A1344CB
:10392000124A1168089A92000A4412681A60089BA9
:10393000013308930C4B1B68DA0F13445B101A46D3
:10394000089B9A42DCDC094B1B680493074A069BE0
:103950001360049807F00CFE74E718460BB05DF88E
:1039600004FB00BF800B0020880B0020840B00208C
:1039700000B589B00390029101920093394B1B6806
:1039800007930398FFF752FF0690069B002B64D124
:10399000029BDAB2039B1A74029BDAB2039B5A743D
:1039A000039B019A5A61009A039B9A619DF8283003
:1039B00003F003038DF82830039BDB8B23F0030314
:1039C0009AB2039BDA83039BDA8B9DF828309BB273
:1039D00013439AB2039BDA83039BDB8B23F06003D0
:1039E0009AB2039BDA83039BDB8B43F020039AB2EA
:1039F000039BDA83039B14225A62039B079A483382
:103A0000483292E8030083E80300039B00221A7700
:103A1000039809F01FF8FEF7FDFE039B0593059B35
:103A200000225A60104B1A68059B1A600E4B1B68E7
:103A3000002B06D10C4A059B13600B4A059B536073
:103A400006E0094B1B68059A5A60074A059B1360FC
:103A5000039B04221A77FEF70DFF069B184609B058
:103A60005DF804FB540B0020780B002000B58DB0EE
:103A7000039002910192029807F0CCFA03460133B9
:103A80000A9300230993019B002B26D01EE0099B7B
:103A90009B00019A13441B68184607F0BBFA0246C4
:103AA0000A9B134401330A93039B9A6B0A9B9A4225
:103AB00002D86FF0230377E0099B01330993099B38
:103AC000B3F5807F02DD6FF006036DE0099B9B007C
:103AD000019A13441B68002BD9D1099B02339B0028
:103AE00007930398079A0A9B1344194608F008FFA6
:103AF0000690069B002B02D16FF00B0354E0069A50
:103B0000079B13440B93069B0B9A1A60029807F0CD
:103B100081FA0346013305930A9A02990B9807F03C
:103B200043FA059B0B9A13440B93059B0A9AD31AED
:103B30000A930023089326E0089B01339B00069A12
:103B400013440B9A1A60089B9B00019A13441B684C
:103B5000184607F05FFA034601330593089B9B0064
:103B6000019A13441B680A9A19460B9807F01CFA2D
:103B7000059B0B9A13440B93059B0A9AD31A0A933D
:103B8000089B01330893089A099B9A42D4DB099B4E
:103B900001339B00069A134400221A60039B9B6822
:103BA0001B6C069A1A61002318460DB05DF804FBE1
:103BB00000B587B005900491039202939DF82030E0
:103BC0000093029B039A04990598FFF7D1FE0346E0
:103BD000184607B05DF804FB00B587B00590049166
:103BE0000392029301230093029B039A0499059880
:103BF000FFF7BEFE0346184607B05DF804FB000061
:103C000000B585B0039002910192029B002B01D177
:103C1000054B0293019A02990398FFF727FF034689
:103C2000184605B05DF804FB0C07030800B587B023
:103C30000190EFF3108372B6ADF80E30BDF80E3080
:103C4000ADF816300E4B1B680493019800F074FE1B
:103C5000019800F0CBFD0346002B03D00499019896
:103C600008F08CFEBDF81630ADF80C30BDF80C3005
:103C700013F0010F00D162B600BF07B05DF804FB7E
:103C8000540B002000B585B0214B1B680193012324
:103C90000393019BDB8B03F00303022B03D0019BF7
:103CA000184602F001F90123029309E0029B013357
:103CB0000293029BB3F5807F02DD012000F010F932
:103CC000019B9B681B6C1A69029B9B0013441B6839
:103CD000002BEBD1019BDB8B03F00303022B0AD1FA
:103CE000019B9B69019A9268126C126911460298B5
:103CF0009847039009E0019B9869019B9B681B6CA6
:103D00001B691A46029905F033FE039800F0E8F8A3
:103D1000540B002000B583B001900091009B9B687C
:103D20001946019810F0B1FF0346184603B05DF83C
:103D300004FB00B583B001900091009B9968009B43
:103D4000DB681A46019810F0E8FE0346184603B0F7
:103D50005DF804FB00B585B001900091002303934A
:103D6000009B9B681946019810F08FFF009B03F1A0
:103D70001401009BDA68009B1B69019811F021FE79
:103D80000290029B002B02DA029B039315E0009B3A
:103D90009A68029B9A4210D0009B9B681A4602992F
:103DA000019810F0BAFE0390039B002B01DB002367
:103DB00003930299019810F068FF039B184605B021
:103DC0005DF804FB00B585B001900091009B1B7865
:103DD00003F00403002B13D0009B5B780293009B3D
:103DE0001B7803F00803002B1BD102AB1946019886
:103DF00000F0A6FE0390039B002B12DA039B1FE04A
:103E0000009B1B7803F00803002B0AD002AB194675
:103E10000020FFF7FBFB0390039B002B01DA039BC1
:103E20000EE0009B1B7803F00803002B07D0009BDB
:103E30009B78194602AB1A46019800F0EBFF00236D
:103E4000184605B05DF804FB00B583B00190019BF6
:103E5000002B0CD0019B1B7803F02003002B06D015
:103E6000019B043300221946032001F043F900BFEF
:103E700003B05DF804FB00B585B00190009100230C
:103E80000293009B039320E0039B1B79022B09D034
:103E9000032B0DD0012B11D103990198FFF73AFFA5
:103EA00002900FE003990198FFF743FF029009E0A9
:103EB00003990198FFF74EFF029003E06FF015039E
:103EC000029300BF039B1B680393039B002B02D04C
:103ED000029B002BD8D0029B184605B05DF804FB6E
:103EE00000B585B00190084B1B680393019BDBB2C2
:103EF0000193039800F07CFA0199039802F070F89E
:103F0000019808F01BFC00BF540B002000B585B0E1
:103F100001904FF4DC7007F05DFB03460393039BB5
:103F2000002B02D16FF00B030AE0039B184605F04B
:103F3000B0FA019B039A1A64019806F0A9FE0023C7
:103F4000184605B05DF804FB10B586B001900091ED
:103F5000002305930023049300230393FEF75AFCE8
:103F6000009B002B71D002E0049B01330493049B5F
:103F70009B00009A13441B68002BF5D1049A019B07
:103F80001A66049B002B5DD0049B01339B001846EE
:103F900007F0FEFA03460593059B002B03D16FF053
:103FA0000B0303934EE0049B9B00059A13440022ED
:103FB0001A6042E0049B9B00009A13441B68184659
:103FC00007F028F8034601330293049B9B00059AEF
:103FD000D418029807F0DCFA03462360049B9B0088
:103FE000059A13441B68002B19D107E0049B9B0022
:103FF000059A13441B68184607F0BAFA049B01336C
:104000000493049B9B00059A13441B68002BEDD17D
:10401000059807F0ADFA6FF00B03039312E0049BD1
:104020009B00059A13441868049B9B00009A134454
:104030001B68029A194606F0B7FF049B5A1E0492A9
:10404000002BB7D1019B059ADA65FEF713FC039BA1
:10405000184606B010BD82B00190009105E0019BAA
:1040600001330193009B01330093019B1A78009B5D
:104070001B789A42F3D0019B1B78002B05D1009B43
:104080001B783D2B01D1012300E00023184602B02C
:10409000704700B585B001900091019BDB6D002B4E
:1040A00002D16FF001031EE00023039311E0019B96
:1040B000DA6D039B9B0013441B6819460098FFF7B9
:1040C000CAFF0346002B01D0039B0CE0039B013386
:1040D0000393019BDA6D039B9B0013441B68002B29
:1040E000E5D16FF00103184605B05DF804FB00B59B
:1040F00083B001900091019BDA6D009B9B001344FB
:104100001B68184607F034FA019B1B6E5A1E019B70
:104110001A66019B1A6E009B9A4207D1019BDA6DC9
:10412000009B9B00134400221A6014E0019BDA6D8F
:10413000009B9B001344019AD16D019A126E92006C
:104140000A4412681A60019BDA6D019B1B6E9B008A
:10415000134400221A60019B1B6E002B08D1019BA7
:10416000DB6D184607F004FA019B0022DA650CE0CB
:10417000019BDA6D019B1B6E01339B0019461046B3
:1041800007F016FA0246019BDA6500BF03B05DF83E
:1041900004FB000086B00190EFF3108372B6ADF817
:1041A0000C30BDF80C30ADF80E3000230493174BE3
:1041B0001B68059304E0059B0493059B1B6805930E
:1041C000059B002B03D0059A019B9A42F3D1059BD6
:1041D000002B0ED0049B002B04D0059B1A68049B77
:1041E0001A6003E0059B1B68084A1360059B0022C8
:1041F0001A60BDF80E30ADF80A30BDF80A3013F081
:10420000010F00D162B600BF06B070474811002010
:1042100000B583B00190019801F0B6FF019801F05C
:1042200017F9019800F0BDFA019B6833184610F0A9
:104230009BFA019801F0C8FF019B8033184607F0F4
:1042400091FB0198FFF7A6FF019B1B69002B07D08C
:10425000019B1B69184607F08BF9019B00221A612C
:10426000019B1B7B43F00403DAB2019B1A73019894
:1042700000F065F800BF03B05DF804FB86B0019064
:1042800000910023059334E0019B1A69059B9B0074
:1042900013441A68009B9A4228D1EFF3108372B638
:1042A000ADF80E30BDF80E30ADF81230019B1A6932
:1042B000059B9B001A44019B1969019B5B7B03F1E1
:1042C0008043013B9B000B441B681360019B5B7B9D
:1042D000013BDAB2019B5A73BDF81230ADF81030D1
:1042E000BDF8103013F0010F00D162B6059B013309
:1042F0000593019B5B7B1A46059B9A42C4DC00BF79
:1043000006B0704700B585B00190019B9B68039390
:10431000039B002B0FD0019BDB6819460398FFF726
:10432000ADFF039B5B7B002B02D10398FFF770FF6F
:10433000019B00229A6000BF05B05DF804FB00B548
:1043400083B00190019B1B7D002B08D1019B1B7B3F
:1043500003F00403002B02D0019807F009F900BF15
:1043600003B05DF804FB00B583B001900023019A0F
:104370000121002012F052FC0023019A06210120A5
:1043800012F04CFC0023019A0621022012F046FC98
:104390000023184603B05DF804FB00B585B001901A
:1043A0000091009B019A9A421CD0019800F02AFBD0
:1043B0000390039B002B15D0039BDB8B23F004039E
:1043C0009AB2039BDA83039BDB8B03F00303012B7D
:1043D00004D1019800F02CF8029003E0019801F05C
:1043E00087FD02900023184605B05DF804FB00002D
:1043F00000B585B00190FEF70DFA019B9B68019A0C
:104400009268127B42F00802D2B21A73019B98683C
:10441000019BDB681A46054901F03AFF0390FEF75D
:1044200029FA039B184605B05DF804FB9B4300087E
:1044300000B585B00190019B002B01D1032327E03B
:10444000019800F0DFFA0390039B002B01D10323B6
:104450001EE0039801F0FAFD0346002B01D0002373
:1044600016E00D4B1A68039B9A4203D14FF0FF30C0
:1044700005F039F9039BDB6B184605F069F94FF03D
:10448000FF31019800F085F8019801F015FE034610
:10449000184605B05DF804FB540B002000B585B04C
:1044A0000190019B0C3302AA1146184605F0AFFAA1
:1044B0000390039B002B29D1029B002B26DA019B42
:1044C00003F11800029B01331A46002105F05FFA40
:1044D000019B0C33184602F0C7F80390039B002B96
:1044E00007D1019B0C3302AA1146184605F08FFA3A
:1044F0000390029B002B02DA039B002BE8D0019B68
:104500001833184600F0C0FD012300E000231846D0
:1045100005B05DF804FB84B0019000910023039383
:10452000019B9B6B029304E0029B0393029B1B681D
:104530000293029B002B04D0029B9A68009B9A4234
:10454000F2D1029B002B21D0039B002B0FD1029BA9
:104550001B68002B06D1019B00229A63019B00225D
:10456000DA6313E0029B1A68019B9A630EE0029BD8
:104570001B68002B06D1019B039ADA63039B002280
:104580001A6003E0029B1A68039B1A6000BF04B024
:10459000704700B589B001900091019800F032FA9F
:1045A0000790079B002B02D0079B9B6800E000232D
:1045B0000693069B2833184604F0D0FF02AB1A4638
:1045C0000199069800F0A6F80590059B002B0ED0E7
:1045D000069B2833184604F0E1FF079BDB8B1BB2D8
:1045E000002B01DA00232BE04FF0FF3328E0079B7C
:1045F0000493029B01229A71029B009A5A62049BC7
:10460000012283F89020029B1846FFF747FF0346DC
:104610008DF80F309DF80F3083F00103DBB2002BD3
:1046200008D0029B5B79002B04D0029B19460698A8
:1046300000F00AF8069B2833184604F0AFFF002369
:10464000184609B05DF804FB00B583B001900091F5
:10465000009B9B6819460198FFF75DFF009B18338C
:10466000184600F075FC009B0C33184600F070FCF7
:10467000009806F07DFF00BF03B05DF804FB00B5B5
:1046800085B001900091282006F0A4FF03461A4649
:10469000009B1A60009B1B68002B01D1162335E09C
:1046A000009B1B68019AD2689A60009B1B680C33C0
:1046B00000220021184605F06AF90346002B06DAAD
:1046C000009B1B68184606F053FF16231EE0019B53
:1046D0009B680393009B1A68019BC3F88C20009B86
:1046E0001B6800221A60039BDB6B002B04D1009B2C
:1046F0001A68039B9A6304E0039BDB6B009A1268C1
:104700001A60009B1A68039BDA630023184605B001
:104710005DF804FB00B587B0039002910192039B02
:104720009A6B019B1A6004E0019B1B681A68019B4D
:104730001A60019B1B68002B05D0019B1B689A68BF
:10474000029B9A42F0D1019B1B68002B01D00023F1
:1047500023E0029800F056F90590059B002B01D14B
:1047600003231AE0059BDB8B1BB2002B05DB059BAB
:10477000DB8B03F00303012B01D016230DE0059B17
:104780000493049B93F89030002B01D0032304E0A2
:1047900001990498FFF773FF0346184607B05DF8C8
:1047A00004FB00B585B0019013E0019B9B6B039364
:1047B000039B1A68019B9A63039B1833184600F009
:1047C000C7FB039B0C33184600F0C2FB039806F0AE
:1047D000CFFE019B9B6B002BE7D1019B2833184632
:1047E00004F078FE00BF05B05DF804FB00B585B0AD
:1047F00001901B4B1B680293029BB3F92030002BE6
:1048000010DD029B1A7C019B1B7C9A420AD215493F
:10481000019800F029F8019B01221A7700238DF8F6
:104820000F3017E00E49019800F01EF80346002BE8
:104830000AD0019B03221A77019B1B6802221A7778
:1048400001238DF80F3005E0019B02221A77002327
:104850008DF80F309DF80F30184605B05DF804FB59
:10486000540B0020600B002086B001900091019B4A
:104870001B7C8DF8123000238DF81330009B1B68D1
:10488000059302E0059B1B680593059B002B05D053
:10489000059B1B7C9DF812209A42F3D9059B002BA7
:1048A00022D1009B5B680393039B002B0FD1019BDC
:1048B00000221A60019B00225A60009B019A1A6034
:1048C000009B019A5A6001238DF813302EE0019B62
:1048D00000221A60019B039A5A60039B019A1A6096
:1048E000009B019A5A6021E0059B5B680393039B40
:1048F000002B0FD1019B059A1A60019B00225A6080
:10490000059B019A5A60009B019A1A6001238DF859
:1049100013300BE0019B059A1A60019B039A5A60C1
:10492000039B019A1A60059B019A5A609DF8133007
:10493000184606B07047000086B00190019B1B7FAF
:104940008DF81730019B0493049B5B680393049BD1
:104950001B680293039B002B1CD1019B1B7F284AE1
:10496000DB0013441B7903F00803002B09D0019BE3
:104970005B6C019A127F1146214A52F83120134490
:1049800005E0019B1B7F1A461D4B53F83230029AFB
:104990001A6002E0039B029A1A60029B002B1CD152
:1049A000019B1B7F164ADB0013441B7903F00803AD
:1049B000002B09D0019B5B6C019A127F1146104AB3
:1049C00052F83120134405E0019B1B7F1A460C4B23
:1049D00053F83230039A5A6002E0029B039A5A60FD
:1049E000049B00221A60049B00225A60019B002253
:1049F0005A64019B00221A7700BF06B0704700BFBF
:104A00001C03030886B0019000230593EFF3108385
:104A100072B6ADF80A30BDF80A30ADF812301A4B54
:104A20001B68002B21D0019B002B1EDB174B1B6842
:104A30005A1E019B13400393134B1A68039B9B0060
:104A400013441B68002B10D00F4B1A68039B9B006C
:104A500013441B68DA68019B9A4206D10A4B1A6814
:104A6000039B9B0013441B680593BDF81230ADF8FF
:104A70000830BDF8083013F0010F00D162B6059B75
:104A8000184606B0704700BF840B0020880B00203A
:104A900086B00190EFF3108372B6ADF80C30BDF81C
:104AA0000C30ADF816300D4B1B685A1E019B13409D
:104AB00004930B4B1A68049B9B00134400221A605A
:104AC000BDF81630ADF80E30BDF80E3013F0010F02
:104AD00000D162B600BF06B0704700BF880B00204F
:104AE000840B002000B585B001900B468DF8033093
:104AF00000230393019B002B1DD0019BDB6818460C
:104B0000FEF75CF9019BDB68002B04D0019BDB689E
:104B10001846FFF7BDFF019BDB6B002B05D09DF80E
:104B200003301946019807F02DFE0198FFF7EAFBC4
:104B3000019806F01DFD039B184605B05DF804FBC7
:104B400000B587B001900091009B002B02D16FF05F
:104B5000150324E0FDF75EFE134B1B680393019BD6
:104B6000002B04D0039BDA68019B9A4202D1039B7D
:104B700005930AE00198FFF745FF0590059B002B80
:104B800003D16FF00203049306E0009B1B681946F3
:104B9000059800F005F90490FDF76CFE049B18469B
:104BA00007B05DF804FB00BF540B002000B585B0D2
:104BB0000190009100990198FFF7C2FF0390039BB9
:104BC000002B08DA04F002FC0246039B5B421360F0
:104BD0004FF0FF330393039B184605B05DF804FBC9
:104BE00000B587B001900091019B1B680593059B60
:104BF0001B7C1A46009B9A4231DB1D4B1B680493B9
:104C0000049BB3F92030002B1BDD0021059801F037
:104C10007BFD03468DF80F3016490598FFF724FEFB
:104C2000059B01221A77019B1B680593059B1B7C42
:104C30001A46009B9A42E8DC009BDAB2019B1A7488
:104C400011E00099019800F053F90346002B0AD0B7
:104C5000074B1B680499184607F090FE03E0009B81
:104C6000DAB2019B1A7400BF07B05DF804FB00BF05
:104C7000540B0020600B002000B585B0019000911E
:104C8000154B1B680393039B1B7C1A46009B9A429F
:104C90000DDA0099019800F02BF90346002B17D08C
:104CA0000D4B1B680399184607F068FE10E00021C1
:104CB000019801F029FD03468DF80B30009BDAB214
:104CC000019B1A740198FFF791FD03468DF80B3094
:104CD00000BF05B05DF804FB540B002000B589B09F
:104CE00001900091019B1B7F8DF81F30019B1B7F62
:104CF0002A4ADB0013441B7903F00803002B09D078
:104D0000019B5B6C019A127F1146244A52F83120B4
:104D1000134405E0019B1B7F1A46204B53F83230A9
:104D200006939DF81F301D4ADB0013441B7903F0E6
:104D30000103002B2AD0019B0593059B5B6804931C
:104D4000059B1B680393049B002B03D1069B039ACE
:104D50001A6002E0049B039A1A60039B002B03D1A4
:104D6000069B049A5A6002E0039B049A5A60059BD2
:104D700000221A60059B00225A60009BDAB2019B58
:104D80001A7406990198FFF76FFD03E0009BDAB2F1
:104D9000019B1A7400BF09B05DF804FB1C030308F3
:104DA00000B585B001900091009B002B02DD009BB7
:104DB000FF2B02DD6FF0150328E0EFF3108372B6CE
:104DC000ADF80C30BDF80C30ADF80E30019B1B7FF8
:104DD000022B06D0032B09D100990198FFF700FFA1
:104DE00009E000990198FFF747FF04E00099019856
:104DF000FFF774FF00BFBDF80E30ADF80A30BDF804
:104E00000A3013F0010F00D162B60023184605B036
:104E10005DF804FB00B589B0039002910192029BFA
:104E2000002B08D0029B012B05D0029B022B02D045
:104E30006FF0150358E0019B1B68002B03DD019BFD
:104E40001B68FF2B02DD6FF015034DE0039B002B69
:104E500002D101F07BF903900398FFF7D3FD07908F
:104E6000079B002B02D16FF002033DE0FDF7D2FC5F
:104E7000EFF3108372B6ADF81230BDF81230ADF812
:104E80001A30079BDB8B23F060039AB2079BDA830F
:104E9000029B002B09D0022B07D0079BDA8B079BC4
:104EA000DA83079B00225A620AE0079BDB8B43F000
:104EB00020039AB2079BDA83079B14225A6200BF31
:104EC000BDF81A30ADF81030BDF8103013F0010FF6
:104ED00000D162B6019B1B6819460798FFF760FF77
:104EE0000590FDF7C7FC059B184609B05DF804FB6B
:104EF00000B585B0019000910021019801F004FCFB
:104F000003468DF80F30009BDAB2019B1A740198AA
:104F1000FFF76CFC03461A469DF80F305340DBB296
:104F2000002B14BF012300238DF80F309DF80F30A4
:104F3000002B05D0054B1B68002B01D0FEF704FBAE
:104F40009DF80F30184605B05DF804FB600B00209B
:104F500082B00190019B1B881BB2002B02DB019BDE
:104F600001221A800023184602B0704700B585B0B0
:104F70000190019B002B07D104F028FA024616236A
:104F800013604FF0FF3310E00198FFF7E1FF03904B
:104F9000039B002B08DA04F019FA0246039B5B42DC
:104FA00013604FF0FF330393039B184605B05DF881
:104FB00004FB000000B587B00190324B1B680493DE
:104FC000EFF3108372B6ADF80A30BDF80A30ADF8D1
:104FD0000E30019B1B881BB2002B0EDD019B1B8832
:104FE0001BB29BB2013B9BB21AB2019B1A80049B7D
:104FF00000225A640023059334E0019B1B881BB2F6
:105000009BB2013B9BB21AB2019B1A80049B019A8E
:105010005A64049B00225A840121049801F074FB15
:1050200003468DF80D30049B05221A77019B04334B
:1050300019460498FFF718FC9DF80D30002B05D099
:10504000104B1B680499184607F098FC049BB3F9B1
:105050002230002B04D0049BB3F922305B4200E0E5
:1050600000230593BDF80E30ADF80830BDF80830C8
:1050700013F0010F00D162B6059B184607B05DF82A
:1050800004FB00BF540B002000B585B001900198CF
:10509000FFF790FF0390039B13F1040FF7D0039BDE
:1050A000184605B05DF804FB00B585B00190019B82
:1050B000002B07D104F08AF90246162313604FF043
:1050C000FF3313E00198FFF775FF0390039B002B5C
:1050D0000BDA039B5B42029300BF04F077F90246B0
:1050E000029B13604FF0FF3300E00023184605B029
:1050F0005DF804FB00B589B00390029101922B4B3F
:105100001B68069300230793FDF784FB019B002B8C
:1051100006D0019A069B483393E8030082E8030017
:10512000029B002B3BD0EFF3108372B6ADF8143026
:10513000BDF81430ADF81630039B022B0DD0032BB5
:1051400015D0012B1BD1069B03F14800069B483369
:10515000029A194604F07EFD15E0069B03F1480013
:10516000069B4833029A194604F035FD0BE0069B76
:10517000029A483392E8030083E8030003E06FF0EB
:105180001503079300BFBDF81630ADF81230BDF817
:10519000123013F0010F00D162B600F009F8FDF7EC
:1051A00069FB079B184609B05DF804FB540B00200F
:1051B00000B589B0274B1B680793FDF72BFB6B46A7
:1051C0000799184601F078FE03AB6A4692E803009F
:1051D00083E80300079B03F1480203A903AB1846C9
:1051E00004F0F9FC03AB184604F072FD0346002BF3
:1051F00003D0FDF73FFB002328E003AB184600F087
:10520000E1F80690069BB3F1FF3F15D003AB06997A
:10521000184604F098FC0699079800F01DF80590D0
:10522000059B002B08D0059B04331946079800F016
:10523000ADFA059800F056F803AB184604F048FDA7
:105240000346002BD9D0FDF715FB0123184609B002
:105250005DF804FB540B002000B589B0019000916B
:10526000019B9B680593EFF3108372B6ADF8103085
:10527000BDF81030ADF8123000230693059BDB6CAF
:10528000079304E0079B0693079B1B680793079B04
:10529000002B05D0079B1B791A46009B9A42F1D13F
:1052A000079B002B0ED0069B002B06D0059B4C3392
:1052B0001946069804F0A9FA04E0059B4C331846F9
:1052C00004F089FABDF81230ADF80E30BDF80E309A
:1052D00013F0010F00D162B6079B184609B05DF8C4
:1052E00004FB000000B589B00190019B1B7C002BE2
:1052F0002AD1EFF3108372B6ADF81230BDF8123038
:10530000ADF81E30019B0693069B00221A602B4BC2
:105310001B68002B06D1294A069B1360274A069B6F
:10532000536006E0254B5B68069A1A60234A069B89
:105330005360BDF81E30ADF81030BDF8103013F0DA
:10534000010F00D162B635E0019B1B7C022B2AD1F4
:10535000EFF3108372B6ADF80E30BDF80E30ADF835
:105360001E30019B0593059B00221A60144B1B689D
:10537000002B06D1124A059B1360114A059B53600E
:1053800006E00F4B5B68059A1A600D4A059B536057
:10539000BDF81E30ADF80C30BDF80C3013F0010F25
:1053A00000D162B606E0019B1B7C012B02D1019863
:1053B00006F0DEF800BF09B05DF804FBEC0F00203A
:1053C000F40F002000B585B00190012303930BE09A
:1053D0000399019804F093FC0346002B01D0039B32
:1053E00007E0039B01330393039B3F2BF0DD4FF05A
:1053F000FF33184605B05DF804FB00B585B0019099
:1054000002E0039801F010FE019B5833184604F0A7
:10541000E2F90390039B002BF3D102E0039801F023
:1054200003FE019B6033184604F0D5F90390039BFB
:10543000002BF3D1019B4833184604F0B7FB019BC6
:105440005033184604F09EFB00BF05B05DF804FB26
:1054500000B585B0019002E0039801F0FBFC019BD0
:105460004433184604F0B7F90390039B002BF3D1A3
:1054700002E00298FFF736FF019B4C33184604F018
:10548000AAF90290029B002BF3D100BF05B05DF892
:1054900004FB000082B0064B1B68002B14BF0123E5
:1054A00000238DF807309DF80730184602B070478A
:1054B000500B002000B589B00190009100230793A4
:1054C000FDF7A8F9019B9A68009B1B7819461046C6
:1054D00001F036FD0690069B002B5DD0069B5B68B5
:1054E000002B59D001F05EFD0590059B002B03D1E8
:1054F0006FF00B0307934FE0069B5A68059B5A60B9
:10550000059B069A0833083292E8030083E80300FB
:10551000069B1B6903F02003002B08D1059B03F1B8
:105520000802009B1B781946104604F0F3FA059B0D
:1055300010330C220099184605F097FDEFF3108305
:1055400072B6ADF80A30BDF80A30ADF81230059BDE
:105550000393039B00221A60019B9B6D002B06D1D5
:10556000019B039A9A65019B039ADA6506E0019B09
:10557000DB6D039A1A60019B039ADA650A49019868
:1055800007F0BAFABDF81230ADF80830BDF80830AF
:1055900013F0010F00D162B6FDF76CF9079B1846B6
:1055A00009B05DF804FB00BF395A000800B585B0AA
:1055B000FFF770FF0346002B0BD01B4804F00BF9DC
:1055C0000390039B002B29D1184804F004F90390A1
:1055D00024E0EFF3108372B6ADF80630BDF8063064
:1055E000ADF80A30104804F0F6F80390BDF80A3020
:1055F000ADF80830BDF8083013F0010F00D162B6E5
:10560000039B002B0AD1142005F0C2FF034603932D
:10561000039B002B02D0039B01221A74039B1846A4
:1056200005B05DF804FB00BFEC0F0020F40F002074
:1056300086B00190009100230593EFF3108372B6BA
:10564000ADF81030BDF81030ADF81230019BDB6CB6
:10565000059302E0059B1B680593059B002B05D075
:10566000059B1B791A46009B9A42F3D1BDF8123074
:10567000ADF80E30BDF80E3013F0010F00D162B658
:10568000059B184606B0704700B585B001900091A3
:10569000019B9B680393009B1B781946039801F0BC
:1056A0004FFC0290029B002B11D0029B1B6903F060
:1056B0008003002B0BD0029B5A69009B9A60029BCF
:1056C0005B68009A1278104600220099984700BF44
:1056D00005B05DF804FB00B589B001900091019B15
:1056E0009B680793009B1B7819460798FFF7A0FF5C
:1056F0000690069B002B07D0069B04330C220099D2
:10570000184605F0B2FC3CE0FFF750FF0690069B00
:10571000002B36D0069B04330C220099184605F066
:10572000A4FCEFF3108372B6ADF80E30BDF80E3066
:10573000ADF81630069B0493049B00221A60079B69
:10574000DB6C002B06D1079B049ADA64079B049A52
:105750001A6506E0079B1B6D049A1A60079B049A62
:105760001A65BDF81630ADF80C30BDF80C3013F0EA
:10577000010F00D162B6069B043319460198FFF76A
:1057800083FF00BF09B05DF804FB000000B591B0D5
:1057900001900091954B1B680E9300230F93009B83
:1057A0001B78002B01D100231CE1019B03F148026F
:1057B000009B1B781946104604F0A1FA0D900D9B32
:1057C000012B76D1EFF3108372B6ADF81630BDF829
:1057D0001630ADF83230019B1B7F062B5AD10D9B42
:1057E000002B0BD0019B03F15002009B1B78194644
:1057F000104604F084FA0346002B4BD0019B68331B
:105800000C220099184605F030FC019B50331846D5
:1058100004F0B8F9019B1B6B002B04D0019B2833CB
:105820001846FDF7FBFB019B0B930B9B5B680A93F0
:105830000B9B1B6809930A9B002B03D16C4A099BA5
:10584000136002E00A9B099A1A60099B002B03D19E
:10585000674A0A9B536002E0099B0A9A5A600B9BB5
:1058600000221A600B9B00225A600198FEF7BEFFCF
:105870000346002B03D00E99019807F07FF8BDF87E
:105880003230ADF81430BDF8143013F0010F00D1F0
:1058900062B66BE0BDF83230ADF81230BDF81230B0
:1058A00013F0010F00D162B600990198FFF713FFC2
:1058B0005CE000990198FFF7FDFD0F90EFF3108376
:1058C00072B6ADF81030BDF81030ADF83230019B33
:1058D0001B7F062B40D1019B68330C220099184690
:1058E00005F0C3FB019B5033184604F04BF9019BB4
:1058F0001B6B002B04D0019B28331846FDF78EFB51
:10590000019B0893089B5B680793089B1B680693A1
:10591000079B002B03D1364A069B136002E0079BCE
:10592000069A1A60069B002B03D1314A079B5360ED
:1059300002E0069B079A5A60089B00221A60089BA7
:1059400000225A600198FEF751FF0346002B03D056
:105950000E99019807F012F8BDF83230ADF80E300C
:10596000BDF80E3013F0010F00D162B60D9B002B75
:1059700031D1EFF3108372B6ADF80C30BDF80C30B6
:10598000ADF83230019B1B7F052B03D10421019818
:1059900001F096F8019B1B7F072B03D0019B1B7F17
:1059A000082B03D10421019800F0E2FD019B1B7F2D
:1059B000092B06D1009B1B78122B02D1019800F015
:1059C0009DFDBDF83230ADF80A30BDF80A3013F055
:1059D000010F00D162B60D9B002B02DA6FF01503A8
:1059E0000F930F9B184611B05DF804FB540B002079
:1059F000680B002000B585B0019000910198FFF779
:105A000001F80290029B002B03D0029B9B6803933A
:105A100003E0019800F006FC0390039B002B05D0E7
:105A20000099039800F0D8FC034601E06FF00203F0
:105A3000184605B05DF804FB00B595B0019003F081
:105A4000C5FC03461B681293019B5B8CADF8463086
:105A5000EFF3108372B6ADF83630BDF83630ADF8DE
:105A60004430019BDB8B03F40073002B0AD0BDF89C
:105A70004430ADF83430BDF8343013F0010F00D1AC
:105A800062B6D0E0019B5833184603F0A4FE109094
:105A9000109B002B0AD1BDF84430ADF83230BDF870
:105AA000323013F0010F00D162B6BCE0019BDB8BFA
:105AB00043F400739AB2019BDA83109B0F930F9B00
:105AC00000221A60019B1B6E002B06D1019B0F9ACE
:105AD0001A66019B0F9A5A6606E0019B5B6E0F9A4D
